:020000040000FA
:0600000069EF10F0120090
:020006001200E6
:060008001AEF00F01200E7
:02000E000300ED
:1000100086230000000000003B00000008230000D1
:10002000000400007E00000008210000000800001D
:0400300000020000CA
:0C003400DACFE4FFE2CFDAFFE9CFE4FF0F
:10004000EACFE4FF52C0E4FF53C0E4FF54C0E4FF32
:1000500055C0E4FFF6CFE4FFF7CFE4FFF8CFE4FFAD
:10006000F5CFE4FFF3CFE4FFF4CFE4FFFACFE4FFF2
:10007000FBCFE4FF00EE45F0080EE80403E3EECF0B
:10008000E4FFFBD7E6529BEC0AF081E94CE8010162
:10009000B82B000EB923BA23BB23F2A003D081CF23
:1000A0002CF0F2909D50100B1AE09E50100B17E0B0
:1000B000CC51CB5D04E3ACA212D09D9810D0FCECE7
:1000C0000AF002E08D8E01D08D9EC9C1E9FFCAC140
:1000D000EAFFEF50AD6ECB2BC92B000ECA239EAAB0
:1000E00045D0ABA202D0AB98AB88C0A524D000010C
:1000F000000E315D010E325918E2000E3125E96E15
:10010000080E3221EA6EAECFEFFF6CA2FED7000ED2
:1001100000013125E96E080E3221EA6EEF506D6E56
:10012000312B000E32238E7221D0AECFCDF10101E2
:10013000C0818E761BD0AECFCDF10001010E136FC2
:10014000460E0101CD5D05E10001010E0F6F0101B9
:10015000C36B370ECD5D05E10001010E106F01018B
:10016000C36B3C0ECD5D02E10001126BF2A42ED0F8
:100170000001346B0101AB6BF294AEEC0AF00001AC
:100180000D5101E08E680D510AE10101C251C22BEF
:10019000240805E2C26B0001010E0E6F8D9601016D
:1001A000C151C12B1E0812E200010A510FE10101E9
:1001B000C16B00010D6B6CA2FED70101005103E180
:1001C000370E6D6E8E68000501E18E680101010534
:1001D00001E00CD1A4AA0AD1280EC76FA00EC86FE7
:1001E000D76EC7C1D6FFF2940001155109E0010195
:1001F000C451050805E28D948D9289920001156B1A
:100200006ECF2DF00101C0A522D00001000E2F5DA0
:10021000010E305918E2000E2F25E96E090E30212B
:10022000EA6E6ECFEFFFACA2FED7000E00012F25C5
:10023000E96E090E3021EA6EEF50AD6E2F2B000EE5
:1002400030238E74D3D00101C0838E78CFD00005C7
:1002500072E18E9000013451EA6A620FE96E010E7C
:10026000EA222DC0EFFF3451342B090A0AE0090AB3
:100270005DE1AA0E336F550E2D5D58E0346B8E9202
:1002800055D08E80346B33512D5D02E08E684ED098
:10029000540E0101635D3FE18E9CC56BC66B00018E
:1002A000010E0A6F0101AB5141E166C14FF04FC031
:1002B00050F000014F6B0101655101EC0BF0000E95
:1002C000D8804D57100E4E57040E516F51514DC0EE
:1002D000A4F14EC0A5F106E00101D890A533A433E6
:1002E000E804FBE168C14FF04FC050F000014F6BD4
:1002F0000101675101EC0BF0040E516F51514DC0DB
:10030000A6F14EC0A7F112E00101D890A733A633A1
:10031000E804FBE10BD0410E635D08E1C56BC66BE1
:100320008D940001F00E086FD80E096F00012D5159
:100330003327010E146F0101005158E18E90C32B39
:100340000001010E146F0B511AE006C0E9FF07C04F
:10035000EAFF062B000E0723020EE926010EEA2211
:100360002DC0EFFFFF0E2D5D0AE10B5108E08E92CC
:10037000010E0A6F0101C56BC66B00010B6BFE0E0F
:100380002D5D0DE10A510BE18E9C010E0B6F116F7B
:100390000101C56BC66B00010A6B066B076BF50E9E
:1003A0002D5D0CE18E96010E116F0101C56BC66BC0
:1003B0008E9C0001F00E086FD80E096F06513E08A2
:1003C000000E075504E2066B076B0B6B0A6B01010D
:1003D000C35100014D6F4E6B4E3508E24D51800800
:1003E000000E4E5503E20101C32BFDD7010101515F
:1003F00001E0E5D1000501E0FCD0A4AAFAD06BA28F
:1004000002D06B986B886ECF2DF0C00E00012D15B9
:10041000C00802E00A5110E08E90010E0A6F166BC0
:10042000176B186B196B2E512E2BEA6A020FE96EAF
:10043000010EEA222DC0EFFF060E2E5D01E0C8D0AE
:100440008E7A2E6B0101CE6BC00E0215C00802E140
:10045000010ECE6F8E9200010A6B0101075101E17E
:1004600094D00001010E0B6F3F0E01010215056EC5
:10047000066A3F0E0315076E086A3F0E0415096EE3
:100480000A6A3F0E05150B6E0C6A000105EB4DF074
:1004900006EB4EF0060ED8904D374E37E804FBE1E0
:1004A00000014D510710016E4E510810026E09EB0C
:1004B0004DF00AEB4EF0060ED8904D374E37E8045B
:1004C000FBE100014D510B10036E4E510C10046EF8
:1004D0000150FF08016E0F0E0254026E0350FF0818
:1004E000036E0F0E0454046E22C0E6FF23C0E6FF25
:1004F00024C0E6FF25C0E6FF01EBE6FF02EBE6FFC6
:10050000D8EC0AF0026EE750016E26C0E6FF27C065
:10051000E6FF28C0E6FF29C0E6FF03EBE6FF04EB99
:10052000E6FFD8EC0AF0046EE750036E040ED89094
:1005300002320132E804FBE1040ED89004320332A7
:10054000E804FBE101EB53F103EB54F1BAEC0AF0E0
:1005500004E0E8427F0BE706FCE1C00F0101426FB7
:100560003F0E5315800F436FC4EC0AF004E0E842DD
:100570007F0BE706FCE1400F0101446F3F0E54156D
:10058000456F466B0F0E476F8E9C07510EE10001C1
:10059000010E0C6F0101C00E426F800E436F400EC2
:1005A000446F456B466B476B8E9E00010B5102E119
:1005B0000C510EE08E940101CE5103E08E96E1ECD9
:1005C0000AF0EAEC0AF000010C5102E02AEC0BF010
:1005D00000012E510C0805E22E6B0A6B0B6B0C6BA5
:1005E0008E688D708D7C8D50010B02E08D8E01D058
:1005F0008D9E0101005101E0E2D0A4AAE0D06BA2DF
:1006000002D06B986B8808EC0BF002E08D8E01D065
:100610008D9E00010A5109E1FE0E2D5D06E0FD0EE2
:100620002D5D03E0F40E2D5D10E18E90010E0A6F3A
:100630002E512E2BEA6A520FE96E010EEA222DC0CE
:10064000EFFF166B176B186B196B040E2E5D01E034
:10065000A5D0FF0E0101555D01E0A0D08E7A00010A
:100660002E6B0A6B2E51EA6A520FE96E010EEA22D6
:10067000EFCFCEF1FE0E0101CE5D57E10001010E7C
:100680000B6F010154510401015D0101546F1AC047
:10069000E6FF1BC0E6FF1CC0E6FF1DC0E6FF53C11E
:1006A000E6FFF3EC0AF00101536F1EC0E6FF1FC026
:1006B000E6FF20C0E6FF21C0E6FF54C1E6FFF3ECF1
:1006C0000AF00101546FBAEC0AF004E0E8427F0B33
:1006D000E706FCE1C00FE66E00012E5118EC0BF0AE
:1006E0003F0E01015315800FE66E00012E2918EC14
:1006F0000BF0C4EC0AF004E0E8427F0BE706FCE1F3
:10070000400FE66E020E00012E2518EC0BF03F0E96
:1007100001015415E66E030E00012E2518EC0BF0B6
:100720001DEC0BF0150EEF6E8E9CFD0E0101CE5DE3
:100730001CE10001010E0C6F2E5191EC0AF0C00E6D
:10074000EF6E2E2991EC0AF0800EEF6E020E2E2530
:1007500091EC0AF0400EEF6E030E2E2591EC0AF09C
:10076000EF6A1DEC0BF0EF6A8E9E00010B5108E161
:100770000C5106E1F40E0101CE5D02E1EAEC0AF053
:1007800000010B5102E10C5104E08E940101E1ECF7
:100790000AF000010C5102E02AEC0BF000012E518E
:1007A0000C0805E22E6B0A6B0B6B0C6B8E688D7060
:1007B0008D7C8D50010B02E08D8E01D08D9E020E3E
:1007C0000101015D0CE1A4AA0AD06BA202D06B98D2
:1007D0006B8808EC0BF002E08D8E01D08D9E4DE908
:1007E000E7CFD9FFE55200EE4CF0080EE80403E332
:1007F000E5CFEDFFFBD7E5CFFBFFE5CFFAFFE5CF78
:10080000F4FFE5CFF3FFE5CFF5FFE5CFF8FFE5CF48
:10081000F7FFE5CFF6FFE5CF55F0E5CF54F0E5CF94
:1008200053F0E5CF52F0E5CFEAFFE5CFE9FFE5CFA2
:10083000DAFF110000010A5119E001010251060816
:100840000AE35A0E035D07E304017A2B000E7B23B3
:10085000010E7C6F7D6B720E0101025D07E35A0E83
:10086000035D04E304017A2B000E7B230401050ED3
:100870007A5D000E7B590EE30001010E156F010138
:10088000C46B8D8404017A6B7B6B8D82898201013C
:10089000026B036B1200D9CFE6FFE1CFD9FF85E9E8
:1008A00044E8056A066A076A086A0550005C065053
:1008B000015807500258085003580CE30400D9505F
:1008C000050FE96EDACFEAFFEE2A000EEE22EE22E5
:1008D000EE22EBD745E9E7CFD9FF12009BEC0AF0F7
:1008E00083E98E7A6CA2FED700EBE9FF01EBEAFF09
:1008F000EFCFE6FF2BEC10F041E96CA2FED7FCEC49
:100900000AF002E08D8E01D08D9E25EC0BF0B6EF43
:100910000AF09BEC0AF082E98E7A6CA2FED700EB1B
:10092000E6FF2BEC10F041E96CA2FED7FCEC0AF0DC
:1009300002E08D8E01D08D9E100EE66E270E97EC94
:100940000AF0B6EF0AF09BEC0AF085E943E8076A83
:10095000056A0150055C1CE20550090A06E0090A17
:1009600007E1550E066E07680DD087EB06F00AD03A
:1009700005500224E96E000E0320EA6EEF50066E69
:100980000650072606EBE6FFC4DF41E9052AE1D75A
:10099000005002E025EC0BF00FEF0BF09BEC0AF09F
:1009A00084E943E8046A056A0E0ED89005BE03D0B8
:1009B000045C000E055832E26CA2FED704EB45F051
:1009C00005EB46F00001476B46BF4769D9CFE9FF09
:1009D000DACFEAFFEE504525F36EEE504621F46E75
:1009E000EE504721F86EF4CFF7FFF3CFF6FF080083
:1009F000F550066E06EBE6FF2BEC10F041E9FCEC3F
:100A00000AF002E08D8E01D08D9E100EE66E270E4C
:100A100097EC0AF0042A000E0522C6D7500EE66EA7
:100A2000C30E97EC0AF00FEF0BF09BEC0AF081E994
:100A300043E8036A0101000521E1E66A0A0EE66E59
:100A40003E0EE66E040E13EC0BF0600EE66EAE0E7C
:100A5000E66E0A0EE66E30EC0BF0E66A0A0EE66E03
:100A60001A0EE66E040E13EC0BF0E66A0A0EE66E42
:100A7000320EE66E040E13EC0BF01FD0016A026A10
:100A80000E0E015C000E025818E2035006E0000151
:100A90000E0E0124456F040E05D00001020E012444
:100AA000456F040E0220466F45C0E6FFE66E16DF76
:100AB00042E9012A000E0222E3D70001126B0FEF78
:100AC0000BF09BEC0AF083E9ACA2FED700EBE6FF4B
:100AD00042EC10F041E9B6EF0AF09BEC0AF083E932
:100AE0006CA2FED700EBE6FF2BEC10F041E9B6EF6D
:100AF0000AF0A00EE66E860EE66E010EE66E30EF90
:100B00000BF06CA2FED70101005101E1010C460E71
:100B1000E66EE66AE2DF42E925EC0BF000011451D3
:100B200002E083DF010C81DF000C9BEC0AF082E91C
:100B3000005004E00001351D8C6E02D035C08CFFE2
:100B4000000136510FE03751381139113A110AE0DE
:100B5000A0EC0AF0D8EC0CF0CEEC0AF00001355114
:100B6000E8240ED03751381139113A1106E0A0ECC3
:100B70000AF086EC0CF0CEEC0AF0000135417F0B58
:100B8000356FD8903A51000A08E6020E375D000E24
:100B90003859000E3959000E3A5908E2020E376FE3
:100BA000386B396B3A6B010E366F14D03A35000E44
:100BB0003A1909E6D880800E3755000E3855000ED8
:100BC0003955000E3A5506E2800E376F386B396B97
:100BD0003A6B366BB6EF0AF0D9CFE6FFE1CFD9FF1B
:100BE00081E95DE8066A076A800E086E3F0E096EAD
:100BF0000E6A0F6A800E106E3F0E116EC70E166ED3
:100C00004B0E176EF70E186E3E0E196E5C0E1A6EB6
:100C10008F0E1B6EC20E1C6E3E0E1D6E0101C09526
:100C2000F26AF096F098F09A0101010E006F01014E
:100C3000016B926A896A986A8F6A8F868F88F19EA3
:100C400093688A688150016E580EE66E1B0EE66E40
:100C5000E66AE66A20DE44E98150015C01E0016851
:100C6000936A81EC10F0000EE66EE66A7EEC0FF0FF
:100C700042E9026EFF0E015C14E081EC10F0570EA9
:100C8000E66E000EE66EE66A1EEC0FF043E981ECBC
:100C900010F001EBE6FF010EE66EE66A1EEC0FF0C7
:100CA00043E981EC10F0000EE66EE66A7EEC0FF090
:100CB00042E9026E570E025C44E181EC10F0010E35
:100CC000E66EE66A7EEC0FF042E9016EFE0E015C14
:100CD00003E08F50080B07E10101010E006F0101D5
:100CE000016BFE0E016EFA0E015C04E10101006B66
:100CF0000101016BFD0E015C03E08F50100B08E158
:100D00000101010E006F0101010E016FFD0E016E68
:100D1000F90E015C05E10101006B0101010E016F9B
:100D2000FC0E015C06E10101010E006F0101020EE3
:100D3000016FF80E015C05E10101006B0101020E7B
:100D4000016F936A946A8B6A956A01EB8CFF966ACD
:100D50008D68976A8E68996A906A9A6A916A8D948A
:100D600089920101B06BB16BB26BB36B0001156B73
:100D70000101010EAB6F8D96600EE66EAE0EE66E53
:100D80000A0EE66EE66A87DD44E98D86020E0101F1
:100D9000015D1CE1400EE66EE66AEC0EE66EE1ECEB
:100DA0000EF043E9400EE66EE66A6C0EE66E9FECCE
:100DB0000EF043E9970EE66EF8EC0FF041E92AC019
:100DC000E6FF2BC0E6FF13EC10F042E901010151F0
:100DD0005BE1400EE66EE66AEC0EE66EE1EC0EF0CC
:100DE00043E9400EE66EE66A6C0EE66E9FEC0EF08E
:100DF00043E9970EE66EF8EC0FF041E92AC0E6FFF2
:100E00002BC0E6FF13EC10F042E90101005108E1AC
:100E10002E0EE66E1C0EE66E000EE66EBFDD43E99A
:100E20000101000531E1820EE66E1C0EE66E000E39
:100E3000E66EB4DD43E9600EE66EAE0EE66E0A0EB7
:100E4000E66EE66A28DD44E93C0EE66E1C0EE66EB0
:100E5000000EE66EA3DD43E9640EE66E1C0EE66E40
:100E6000000EE66E9BDD43E96E0EE66E1C0EE66E2E
:100E7000000EE66E93DD43E9780EE66E1C0EE66E1C
:100E8000000EE66E8BDD43E9010101051DE1400E18
:100E9000E66EE66A6C0EE66EE1EC0EF043E9400E9B
:100EA000E66EE66A6C0EE66E9FEC0EF043E99F0E6E
:100EB000E66EF8EC0FF041E9280EE66EA00EE66E45
:100EC00013EC10F042E9B1DDE40EE66E1B0EE66EA7
:100ED000000EE66E50EC0FF043E99EAA04D0BEEC83
:100EE0000FF0016EFAD7A4AA04D09FEC0FF0016EA8
:100EF000FAD7D08E9E9AA49A9E989D98A498F29C18
:100F0000F28E836A0101010501E05FD20001136BDB
:100F10000001146B0101C0A54AD004008E7A0101C2
:100F20000101C051010B05E101010101C051020B9A
:100F30003DE0036A046A0350FF08000E045436E3E0
:100F4000F29EF29C81EC10F0000E0324E96E080E74
:100F50000420EA6EEFCFE6FF03EBE6FF04EBE6FFCB
:100F60001EEC0FF043E9040081EC10F0000E0324A6
:100F7000E96E090E0420EA6EEFCFE6FF0001000ED5
:100F80000324456F010E0420466F45C0E6FF46C0AE
:100F9000E6FF1EEC0FF043E981EC10F0F28EF28CCC
:100FA0000400032A000E04220400C5D7B3D7A9DD2C
:100FB000000116C045F017C046F018C047F019C030
:100FC00048F0162B000E172318231923200E0001BA
:100FD00008250001496F4E0E0001092100014A6FEA
:100FE00000014B6B4C6B00014C3500014851000176
:100FF0004C1910E6000149510001455D00014A51BC
:101000000001465900014B510001475900014C5164
:101010000001485949E390708D708D50010B02E03A
:101020008D8E01D08D9E0DC0E6FF7FDD41E901016F
:10103000C4511E080DE28D9404017C517D1108E01D
:1010400004017C6B7D6B8D948D9289920001156BF0
:101050000101C42B24D00101C5C145F0C6C146F031
:10106000C52B000EC62300013C0E455D000E4659FF
:1010700008E30001115105E13CDDD7DC3ADDFFD783
:101080000ED00101960EC55D000EC65908E30001A1
:10109000115105E00001116B0101C56BC66B000128
:1010A000166B176B186B196B8E781AEC04F0000135
:1010B0000F5101E12BD18E8000010A5101E10DD1C8
:1010C0004B0EE66EDDEC0FF041E9FE0EE66EE66AD1
:1010D000F8DC42E90101000501E07CD00101010ECC
:1010E000AB6F16EBE6FF17EBE6FF18EBE6FF19EB2D
:1010F000E6FFA4C1E6FFA5C1E6FFAFEC0BF029ECCB
:101100000DF0E552E5CF48F0E5CF47F0E5CF46F0EA
:10111000E7CF45F0000145510A6E46510B6E47512D
:101120000C6E48510D6E1AEBE6FF1BEBE6FF1CEB55
:10113000E6FF1DEBE6FFA6C1E6FFA7C1E6FFAFECA9
:101140000BF029EC0DF0E552E5CF48F0E5CF47F084
:10115000E5CF46F0E7CF45F000014551126E46510C
:10116000136E4751146E4851156E0101AB6B0AEBBB
:10117000E6FF0BEBE6FF0CEBE6FF0DEBE6FF37ECD3
:101180000CF0E552E5CF46F0E7CF45F000014551C0
:10119000056E05EB02F10550E66EE66A92DC42E967
:1011A00012EBE6FF13EBE6FF14EBE6FF15EBE6FFB1
:1011B00037EC0CF0E552E5CF46F0E7CF45F0000103
:1011C0004551056E05EB03F10550E66EE66A79DCE4
:1011D00042E972D006EBE6FF07EBE6FF08EBE6FF1D
:1011E00009EBE6FF02C1E6FF35EC0BF029EC0DF050
:1011F000E552E5CF48F0E5CF47F0E5CF46F0E7CF41
:1012000045F0000145510A6E46510B6E47510C6E78
:1012100048510D6E0AEBE6FF0BEBE6FF0CEBE6FF29
:101220000DEBE6FF37EC0CF0E552E5CF46F0E7CFEB
:1012300045F000014551056E0550E66EE66A41DC59
:1012400042E90EEBE6FF0FEBE6FF10EBE6FF11EBDA
:10125000E6FF03C1E6FF35EC0BF029EC0DF0E5529B
:10126000E5CF48F0E5CF47F0E5CF46F0E7CF45F0D2
:1012700000014551126E4651136E4751146E48518C
:10128000156E12EBE6FF13EBE6FF14EBE6FF15EB32
:10129000E6FF37EC0CF0E552E5CF46F0E7CF45F03E
:1012A00000014551056E0550E66EE66A61EC05F0F9
:1012B00042E90001066B076BFF0EE66EE66A61EC21
:1012C00005F042E90101B02B000EB123B223B32394
:1012D00000010A6B00010F6B19D0410EE66EDDECC8
:1012E0000FF041E9F50EE66EE66A61EC05F042E9C1
:1012F000FF0EE66EE66A61EC05F042E90101BC2BE7
:10130000000EBD23BE23BF2300010F6B000110514F
:1013100048E08E9E4B0EE66EDDEC0FF041E9066A6A
:10132000076A800E086E3F0E096E0E6A0F6A800E05
:10133000106E3F0E116E0101000506E03D0EE66ED7
:10134000E66A6DEC05F042E9F40EE66EE66A61ECE1
:1013500005F042E9770EE66EE66A61EC05F042E9D7
:101360005F0EE66EE66A61EC05F042E90CD0710EA4
:10137000E66EE66A61EC05F042E9590EE66EE66A51
:1013800061EC05F042E9FF0EE66EE66A61EC05F0FD
:1013900042E90101B42B000EB523B623B7230001A7
:1013A000106B00010B5100E00001125102E015EC3E
:1013B00005F0ABA203D08E68AB98AB886BA203D0CC
:1013C0008E686B986B880400F3D50101015162E1CE
:1013D000000116C045F017C046F018C047F019C00C
:1013E00048F0162B000E172318231923D89000015C
:1013F0004851000A08E6A80E455D610E4659000EE8
:101400004759000E48593AE390708D708D50010B8A
:1014100002E08D8E01D08D9E00010D510BE00DC0BC
:10142000E6FF95EC05F041E900016A0E2A6F670EB0
:101430002B6F0AD00DC0E6FF95EC05F041E90001E5
:101440005E0E2A6FE60E2B6F0001166B176B186B82
:10145000196B0101005112E100010E510FE09D5086
:10146000100B0CE12E0EE66E1C0EE66E000EE66E04
:10147000CEEC04F043E900010E6B8D86ABA203D0E5
:101480008E68AB98AB886BA203D08E686B986B8824
:1014900004009ED7020E0101015D3FE1000116C06C
:1014A00045F017C046F018C047F019C048F0162B99
:1014B000000E172318231923D89000014851000A61
:1014C00008E6980E455D3A0E4659000E4759000E43
:1014D000485917E390708D708D50010B02E08D8E8E
:1014E00001D08D9E0101005102E0000E01D0010EDD
:1014F000E66E95EC05F041E90001166B176B186B71
:10150000196BABA203D08E68AB98AB886BA203D0EB
:101510008E686B986B880400C1D75EE9E7CFD9FF6E
:101520001200EA6A420FE96E010EEA221200E66E2C
:10153000E66A30EF0BF0D9CFE6FFE1CFD9FF12001A
:10154000020EE66EE66AE66AE66A37C0E6FF38C073
:10155000E6FF39C0E6FF3AC0E6FF12002AC0E6FF08
:101560002BC0E6FF13EC10F042E9120041E9E7CF8F
:10157000D9FF12000001060E4D6FC00E0101531578
:101580004DC0E7FFE75212000001060E4D6FC00E7E
:10159000010154154DC0E7FFE7521200E552E5CFB7
:1015A0003AF0E5CF39F0E5CF38F0E7CF37F0120069
:1015B000AFEC0BF029EC0DF037EC0CF0E552E550F8
:1015C0001200420EC96F010ECA6FCB6B060ECC6FB4
:1015D0009D8812000001010E0D6F0E6B8D860101BA
:1015E000C26B8D94120035EC0BF029EC0DF0D0ECB1
:1015F0000BF041E9E750120090708D708D50010B97
:10160000120000014F254D6F000E50214E6F120049
:101610006ECF2DF08D708D7A8D50010B120044E944
:10162000E7CFD9FF1200E66EA3EC04F044E9120004
:1016300078DFE552E750EF6E1200040E2E2571DFC1
:10164000EF6A050E2E2591EF0AF0300EE66E750E4C
:1016500097EF0AF00B6B0C6B0A6B8E98AEEF0AF0EB
:0A166000E66A4BEC04F044E91200C6
:06166A00D89801D0D888D9
:1016700051E8D9CFE6FFDACFE6FFE1CFD9FFE2CFDD
:10168000DAFF94E9089E04E700AE02D0006C088EF1
:1016900080EB0CF00B6A0A6A096A860E0D6E0E6A00
:1016A00052EF0BF00C500B100A10091055E00EBE53
:1016B0004DD00CBE0CD00D500E1048E0D89009361D
:1016C0000A360B360C360D06D8A00E06F2D70E5091
:1016D00031E10D282FE009AE11D07F0E091402E18F
:1016E0000AA00CD00A2AE86A0B220C2207E3D88051
:1016F0000C320B320A320D2A0D281CE00D5026E068
:101700008AEB00F08BEB01F00C34026E0D30036EAF
:101710000232039E08BE038EE552E5CFDAFFE7CF23
:10172000D9FF4EE912007F0E036EFF0E026E016EAE
:10173000006EF2D77F0E08BEFF0E036E02D07F0E42
:10174000036E800E026E016A006AE6D708AE04D00E
:10175000800E036E026AF7D7036A026AF4D7D8983C
:1017600001D0D88850E8D9CFE6FFDACFE6FFE1CF45
:10177000D9FFE2CFDAFF94E9089E07E701AE05D072
:10178000006C011EE86A0122088E81EB0CF080EBF0
:101790000BF00A6A096A8E0E0D6E0E6A52EF0BF09C
:1017A00045E8D9CFE6FFDACFE6FFE1CFD9FFE2CFB8
:1017B000DAFF8BE9086A21EC0CF008B6E4EF0BF0D5
:1017C00008AA0AD008BC03D07F0E006E1BD0800E82
:1017D000006E18D0006A16D008B8FCD7870E0360D8
:1017E000F1D77E0E0364F6D7860E035C04E0D89032
:1017F0000232032AF9D708AC03D0026C02AEEAD752
:1018000082EB00F0E552E5CFDAFFE7CFD9FF48E9F8
:1018100012000636073602E30884087E06E10880D7
:10182000076A066A056A046A1200072803E0D8807E
:1018300006321200D890063202E1088212000886B1
:1018400012000236033602E3088C087E06E108889F
:10185000036A026A016A006A1200032803E0D88062
:1018600002321200D8900232EAE1088A120045E8FA
:10187000D9CFE6FFDACFE6FFE1CFD9FFE2CFDAFF3B
:101880008BE9086A21EC0CF008B64BEF0CF008AAC3
:101890000ED008BC05D07F0E016EFF0E006E23D067
:1018A000800E016E006A1FD0016A006A1CD008B861
:1018B000FBD78F0E0360EDD77E0E0364F5D78E0E37
:1018C000035C05E0D89002320132032AF8D708AC55
:1018D00006D0016C021EE86A022202AEE5D781EB57
:1018E00000F082EB01F0E552E5CFDAFFE7CFD9FF58
:1018F00047E9120045E8D9CFE6FFDACFE6FFE1CFAE
:10190000D9FFE2CFDAFF8FE90C6A1200F3DF0C8017
:1019100001D0F0DFE86A03AE97EF0CF0006C011E17
:10192000021E031E0122022203220CB00C7E07AE0F
:10193000A2EF0CF0046C051E061E071E05220622EF
:1019400007220C7EB1EC0DF007BED3EF0CF00CAE0D
:101950000FD0046C051E061E071EE86A052206222B
:101960000722086C091E0A1E0B1E09220A220B22DE
:101970000CB00AD088EB00F089EB01F08AEB02F0A2
:101980008BEB03F00CA008D084EB00F085EB01F0AA
:1019900086EB02F087EB03F0E552E5CFDAFFE7CF05
:1019A000D9FF49E9000C0CBEA9EF0CF0E1DFFF0CF8
:1019B00044E8D9CFE6FFDACFE6FFE1CFD9FFE2CFA7
:1019C000DAFF8EE980EB08F081EB09F082EB0AF098
:1019D00083EB0BF004500802F350006EF450016EDC
:1019E00004500902F3500126000EF420026E045048
:1019F0000A02F3500226000EF420036E04500B027C
:101A0000F350032605500802F3500126F450022239
:101A1000000E032205500902F3500226F45003225F
:101A200005500A02F350032606500802F35002261E
:101A3000F450032206500902F3500326075008020F
:101A4000F3500326E552E5CFDAFFE7CFD9FF48E9A7
:101A5000000C4AE8D9CFE6FFDACFE6FFE1CFD9FFA5
:101A6000E2CFDAFF94E9086A09EC0CF021EC0CF003
:101A700008B693EF0BF008A205D008B893EF0BF06F
:101A80009AEF0BF008AA05D008B093EF0BF09AEF8D
:101A90000BF008B002D008A802D0A6EF0BF00E6A37
:101AA000035007240D6EE86A0E227E0E0D5EE86A72
:101AB0000E5A096A0A6A0B6A0C6A02500602F4504E
:101AC0000C6EF3500B6E01500602F3500A26F450D0
:101AD0000B22000E0C2202500502F3500A26F4508D
:101AE0000B22000E0C2200500602F3500926F4507F
:101AF0000A22000E0B220C2201500502F350092687
:101B0000F4500A22000E0B220C2202500402F35061
:101B10000926F4500A22000E0B220C220050050266
:101B2000F4500926000E0A220B220C220150040256
:101B3000F4500926000E0A220B220C2252EF0BF061
:101B400045E8D9CFE6FFDACFE6FFE1CFD9FFE2CF14
:101B5000DAFF8FE90C6A1200F3DF0C8003D0F0DFAC
:101B600001D00C820B6A0A6A096A086A200EE76EC5
:101B7000D8900436053606360736083609360A3652
:101B80000B360050085C0150095802500A580350A7
:101B90000B5809E30050085E0150095A02500A5AD6
:101BA00003500B5A042AE72EE4D70CB212000CB0F3
:101BB0000AD088EB00F089EB01F08AEB02F08BEBA6
:101BC00003F00CA008D084EB00F085EB01F086EB6D
:101BD00002F087EB03F0E552E5CFDAFFE7CFD9FF5C
:041BE00049E91200BD
:0C1BE4002056332E3332203837323220A6
:101BF00056617269616E20564520746F7563682D59
:101C000073637265656E20636F6E7665727465725C
:101C10002E20467265642042726F6F6B732C204DCC
:101C20006963726F6368697020496E632E000D0DE1
:101C30000D0D0D3C2B442529443D2A37554D008779
:101C400040303030303055535800FF0001303030D4
:101C500055535900FF000130303055535A000100F0
:101C60000F3030305542051400000F3030305545EC
:101C70003136303030303030554E31373030303012
:101C800030305552323030303030303000000000CB
:101C90000000000000000000000000000000000044
:101CA0000E0EF66E000EF76E000EF86E00010900C3
:101CB000F550406F0900F550416F03E1406701D0D6
:101CC0003DD00900F5503B6F0900F5503C6F09000D
:101CD000F5503D6F09000900F550E96E0900F55017
:101CE000EA6E090009000900F5503E6F0900F55041
:101CF0003F6F09000900F6CF42F0F7CF43F0F8CF6D
:101D000044F03BC0F6FF3CC0F7FF3DC0F8FF0001C8
:101D10003E5302E13F5307E00900F550EE6E3E07E7
:101D2000F8E23F07F9D742C0F6FF43C0F7FF44C0CF
:0E1D3000F8FF00014007000E415BBFD7120014
:021D3E00D9CFFB
:101D4000E6FFDACFE6FFE1CFD9FFE2CFDAFF85E9A0
:101D50006C6A6B6A02B06C8802A202D06C8C6B8CCD
:101D600002B46C8E02A602D06B8801D06B8A02A8E6
:101D700002D06C8401D06C9402BA6B8602AC02D0A3
:101D8000A38A01D0A39A02AE02D0A38801D0A3985F
:101D900000EB6FFF000101EB45F0466B45C07DFF96
:101DA0006C8A6B8E989298846C50100B04E06C5087
:101DB000800B01E1988241E9E5CFDAFFE7CFD9FF57
:021DC00012000F
:0E1DC200D9CFE6FFDACFE6FFE1CFD9FFE2CFBF
:101DD000DAFF85E9AC6AAB6A02B0AC8802A202D035
:101DE000AC8CAB8C02B4AC8E02A602D0AB8801D016
:101DF000AB8A02B8AC8402BAAB8602AC02D09D8A30
:101E000001D09D9A02AE02D09D8801D09D9800EB32
:101E1000AFFF01EB45F045C07FFFAC8AAB8E949CD1
:101E2000948EAC50100B04E0AC50800B01E1948C0C
:0C1E300041E9E5CFDAFFE7CFD9FF12004F
:041E3C00D9CFE6FF15
:101E4000DACFE6FFE1CFD9FFE2CFDAFF85E941E85B
:101E5000056A000102EB45F0030E4515AA6EFF0E60
:101E60000114A96E00EBA8FFA69EA69CA684F250C2
:101E7000800B01E0010E056EF29E550EA76EAA0EB4
:101E8000A76EA682A6B2FED70550E8B0F28EE8A0F3
:101E9000F29EA69442E9E5CFDAFFE7CFD9FF120020
:101EA000D9CFE6FFDACFE6FFE1CFD9FFE2CFDAFF05
:101EB00085E9ACA2FED700EBF6FF01EBF7FF02EBE2
:101EC000F8FF0800F5CFE6FF42EC10F041E9D9CF6A
:101ED000E9FFDACFEAFFEFCFF6FFEE2AEFCFF7FF09
:101EE000000EEE22EFCFF8FFEE220800F550E1E100
:0C1EF00041E9E5CFDAFFE7CFD9FF12008F
:041EFC00D9CFE6FF55
:101F0000DACFE6FFE1CFD9FFE2CFDAFF84E90001C3
:101F100001EB45F0466B030E00014515AA6EFF0E5E
:101F20000014A96EA69CA69EA68000000000A850E2
:0E1F300000D041E9E5CFDAFFE7CFD9FF12007C
:021F3E00D9CFF9
:101F4000E6FFDACFE6FFE1CFD9FFE2CFDAFF82E9A1
:101F500041E8F20E000158176BAC03D058916BB0FA
:101F600058816BB458856BB258876E50026E025020
:0C1F700042E9E5CFDAFFE7CFD9FF12000D
:041F7C00D9CFE6FFD4
:101F8000DACFE6FFE1CFD9FFE2CFDAFF82E941E81D
:101F9000F20E00015917ABAC03D05991ABB0598187
:101FA000ABB45985ABB25987AE50026E025042E9CC
:0A1FB000E5CFDAFFE7CFD9FF1200FA
:061FBA00FF0EE3500001E0
:101FC000576FEE0E02D0F20E0000E76EE72EE6EF3E
:101FD0000FF00C0E0001566FE76AE72EEDEF0FF0E1
:101FE000562FECEF0FF00001572FE3EF0FF0120028
:101FF000D9CFE6FFDACFE6FFE1CFD9FFE2CFDAFFB4
:1020000083E97F0E0014D56ED76AD66AF29400AECB
:1020100002D0F28A01D0F29AD58E41E9E5CFDAFFFB
:06202000E7CFD9FF12001A
:0A202600D9CFE6FFDACFE6FFE1CFE5
:10203000D9FFE2CFDAFF84E942E880EB04F081EBDC
:1020400005F005EBD7FF04EBD6FF43E9E5CFDAFF58
:06205000E7CFD9FF1200EA
:0A205600D9CFE6FFDACFE6FFE1CFB5
:10206000D9FFE2CFDAFF83E96CAC04D06C900001B9
:1020700058B36C8000EB6DFF41E9E5CFDAFFE7CFA5
:04208000D9FF120072
:0C208400D9CFE6FFDACFE6FFE1CFD9FFAD
:10209000E2CFDAFF83E9ACAC04D0AC90000159B3D5
:1020A000AC8000EBADFF41E9E5CFDAFFE7CFD9FF28
:0220B00012001C
:0E20B200600EF36E00EE00F00F0E01D812006B
:1020C000EA6002D0EE6AFCD7F350E9601200EE6AD3
:0220D000FCD73B
:0E20D2001EEE00F02EEE00F0F86A50EC0EF05C
:0C20E00003EC00F0ECEC05F0FBD7120064
:0420EC0031363A301F
:1020F000303A32300041707220323620323031377F
:0121000000DE
:06210200A6B2FED7120098
:08210800480000000000000087
:1021100000000000000000000000000000000000BF
:1021200000000000000000000000000000000000AF
:10213000000000000000000000000000000000009F
:10214000000000000000000000000000000000008F
:10215000000000000000000000000000000000007F
:10216000000000000000000000000000000000006F
:10217000000000000000000000000000000000005F
:10218000000000000000000000000000000000004F
:10219000000000000000000000000000000000003F
:1021A000000000000000000000000000000000002F
:1021B000000000000000000000000000000000001F
:1021C000000000000000000000000000000000000F
:1021D00000000000000000000000000000000000FF
:1021E00000000000000000000000000000000000EF
:1021F00000000000000000000000000000000000DF
:10220000000000000000000053000000000000007B
:1022100000000000000000000000000000000000BE
:1022200000000000000000000000000000000000AE
:10223000000000000000000000000000000000009E
:10224000000000000000000000000000000000008E
:10225000000000000000000000000000000000007E
:10226000000000000000000000000000000000006E
:10227000000000000000000000000000000000005E
:10228000000000000000000000000000000000004E
:10229000000000000000000000000000000000003E
:1022A000000000000000000000000000000000002E
:1022B000000000000000000000000000000000001E
:1022C000000000000000000000000000000000000E
:1022D00000000000000000000000000000000000FE
:1022E00000000000000000000000000000000000EE
:1022F00000000000000000000000000000000000DE
:082300000000000000000000D5
:08230800775E0D0D0D0D0D3C7B
:102310002B4426443D2A0D0D0D0D0D3C2B44254428
:102320003D2A554201040000000000000000554510
:1023300031340000000000000000554E313700002D
:1023400000000000000055523200000000000000B4
:1023500000005553590100FF0000000000005569BE
:1023600000000000000000000000556700000000B1
:10237000000000000000000000000000000000005D
:0623800000000000000057
:0A238600F52000EC2000000000002C
:10239000000000000000000000000000000000003D
:1023A0003333F33F0000E03F14AE673F6666263FDD
:1023B0006A6700000000000000FF00FE01FE000050
:0123C000001C
:020000040030CA
:0100010006F8
:010002001EDF
:010003000FED
:01000400F308
:010005008377
:01000600C138
:01000800FFF8
:01000900C036
:01000A00FFF6
:01000B00E014
:01000C00FFF4
:01000D0040B2
:00000001FF
