:020000040000FA
:0600000019EF08F01200E8
:020006001200E6
:0600080014EF00F01200ED
:02000E000200EE
:1000100054100000280000001E0000004C100000DA
:080020000004000008000000CC
:08002800DACFE4FFE2CFDAFFBA
:10003000E9CFE4FFEACFE4FFD9CFE4FFDACFE4FF72
:1000400050C0E4FF51C0E4FF52C0E4FF53C0E4FFDE
:10005000F6CFE4FFF7CFE4FFF8CFE4FFF5CFE4FFFE
:10006000F3CFE4FFF4CFE4FFFACFE4FFFBCFE4FFEC
:1000700000EE54F0040EE80403E3EECFE4FFFBD7F8
:10008000E6529D50100B1BE09E50100B18E0000133
:100090002551245D04E3ACA212D09D9810D022C05B
:1000A000E9FF23C0EAFFEF50AD6E90701FDB02E066
:1000B0008D8E01D08D9E242B222B000E23239EAAF1
:1000C00006D0ABA202D0AB98AB88AECF42F0F2A480
:1000D0002AD0F29440C0E6FF41C0E6FFC3EC07F02F
:1000E00042E9907003DB02E08D8E01D08D9E00010D
:1000F0002C5108E12E512E2B240804E22E6B010E08
:100100002F6F8D962D512D2B1E080DE228510BE1DE
:100110002D6B2C6B6CA2FED70001005102E1370E53
:100120006D6E8D728D84020E0001005D0FE1A4AA38
:100130000DD06BA202D06B986B886ECF44F044C098
:1001400026F0D4DA02E08D8E01D08D9E005101E0C0
:10015000E8D0A4AAE6D06BA202D06B986B886ECFD1
:1001600043F043C026F0C2DA02E08D8E01D08D9EAE
:10017000000128510AE1FE0E0001265D06E0FD0E99
:10018000265D03E0F40E265D10E10001010E286FEC
:100190004551452BEA6A110FE96E000EEA2226C08E
:1001A000EFFF346B356B366B376B040E0001455D2A
:1001B00001E0AFD0FF0E0001145D01E0AAD0000104
:1001C000456B286B4551EA6A110FE96E000EEA2271
:1001D000EFCF27F0FE0E0001275D5DE10001010E6B
:1001E0002A6F000113510401015D0001136F38C033
:1001F000E6FF39C0E6FF3AC0E6FF3BC0E6FF12C0AB
:10020000E6FF65DA0001126F3CC0E6FF3DC0E6FF85
:100210003EC0E6FF3FC0E6FF13C0E6FF58DA00012C
:10022000136F0001060E586FC00E0001121558C062
:10023000E7FFE75204E0E8427F0BE706FCE1C00F6E
:10024000E66E0001455156DA3F0E00011215800F8F
:10025000E66E000145294EDA0001060E586FC00E09
:100260000001131558C0E7FFE75204E0E8427F0B96
:10027000E706FCE1400FE66E020E000145253ADA82
:100280003F0E00011315E66E030E0001452532DA1C
:1002900036DA150EEF6EFD0E0001275D16E1000146
:1002A000010E2B6F45510DDAC00EEF6E452909DAAC
:1002B000800EEF6E020E452504DA400EEF6E030E3F
:1002C0004525FFD9EF6A1BDAEF6A00012A510DE1DB
:1002D0002B510BE1F40E0001275D07E10001010E37
:1002E0002C6F2F6B8D862E6B8D9400012A5102E1AD
:1002F0002B5109E00001010E226F000E236F246BC9
:10030000060E256F9D8800012B5103E02A6B2B6B95
:10031000286B00014551080804E2456B286B2A6BE5
:100320002B6BE55200EE57F0040EE80403E3E5CF33
:10033000EDFFFBD7E5CFFBFFE5CFFAFFE5CFF4FFFD
:10034000E5CFF3FFE5CFF5FFE5CFF8FFE5CFF7FF0A
:10035000E5CFF6FFE5CF53F0E5CF52F0E5CF51F012
:10036000E5CF50F0E5CFDAFFE5CFD9FFE5CFEAFFE3
:10037000E5CFE9FFE5CFDAFF1100D9CFE6FFE1CF06
:10038000D9FF85E944E8056A066A076A086A0550E4
:10039000005C0650015807500258085003580CE3FF
:1003A0000400D950050FE96EDACFEAFFEE2A000EFD
:1003B000EE22EE22EE22EBD745E9E7CFD9FF12007D
:1003C000D9CFE6FFE1CFD9FF84E943E8046A056AA3
:1003D0000E0ED89005BE03D0045C000E055830E226
:1003E0006CA2FED704EB54F005EB55F00001566B00
:1003F00055BF5669D9CFE9FFDACFEAFFEE50542551
:10040000F36EEE505521F46EEE505621F86EF4CF97
:10041000F7FFF3CFF6FF0800F550066E06EBE6FF98
:10042000DBEC07F041E962D902E08D8E01D08D9EB0
:10043000100EE66E270E54D9042A000E0522C8D7E6
:10044000500EE66EC30E4CD944E9E7CFD9FF120037
:10045000D9CFE6FFE1CFD9FF81E942E8FE0E016E78
:100460000001006B926A896A936A8A6A946A8B6A4D
:10047000956A8C6A966A8D68976A8E68986A8F6AA0
:10048000996A906A9A6A916A400EE66EE66AEC0E84
:10049000E66ED4EC06F043E9400EE66EE66A6C0EBA
:1004A000E66E92EC06F043E9970EE66EA8EC07F0D4
:1004B00041E940C0E6FF41C0E6FFC3EC07F042E976
:1004C000D08E9F8AA58A9EAA04D089EC07F0026E7E
:1004D000FAD7A4AA04D06AEC07F0026EFAD77E0E0F
:1004E000E66E0E0EE66E000EE66E11EC07F043E9C6
:1004F0008D96600EE66EAE0EE66E0A0EE66EE66A4B
:100500003CDF44E9CD0EE66E0B0EE66E000EE66EA5
:1005100057DF43E98D86F28AF296F298F096F098CA
:10052000F09AF29CF28E836A0001FE0E306F316BFE
:10053000326B336B0F0E816E000134C054F035C046
:1005400055F036C056F037C057F0342B000E352327
:1005500036233723D89000015751000A08E6B80E19
:10056000545D880E5559000E5659000E575901E238
:10057000A2D0F29E00012C5108E0011C8C6E0001FB
:100580006A0E406F670E416F07D001EB8CFF0001D0
:100590005E0E406FE60E416FF28E0001295122E09F
:1005A000000130513111321133111CE0020EE66EA0
:1005B000E66AE66AE66A30C0E6FF31C0E6FF32C0AE
:1005C000E6FF33C0E6FFC6EC04F0E552E5CF33F0BA
:1005D000E5CF32F0E5CF31F0E7CF30F00150E8243D
:1005E000016E21D00001305131113211331118E068
:1005F000020EE66EE66AE66AE66A30C0E6FF31C0E1
:10060000E6FF32C0E6FF33C0E6FF74EC04F0E552CB
:10061000E5CF33F0E5CF32F0E5CF31F0E7CF30F082
:1006200001407F0B016ED89000013351000A08E6AB
:10063000020E305D000E3159000E3259000E335952
:100640000AE20001020E306F316B326B336B000136
:10065000010E296F17D000013335000E331909E65A
:10066000D880800E3055000E3155000E3255000EE8
:10067000335508E20001800E306F316B326B336B03
:100680000001296B0001346B356B366B376B04004E
:1006900000012F5110E09D50100B0DE1F29ECD0E88
:1006A000E66E0B0EE66E000EE66E8ADE43E9F28E13
:1006B00000012F6B8D8604003FD743E9E7CFD9FFB8
:1006C0001200EA6A010FE96E000EEA22120087ECBE
:1006D00003F017EC05F001EC04F041E9E7501200DB
:1006E000E66EE66AE66A49DE44E912008D708D50D6
:1006F000010B1200E6DFE552E750EF6E1200040E28
:0E0700004525DFDFEF6A050E452561EF03F0AA
:02070E00D89879
:1007100001D0D88851E8D9CFE6FFDACFE6FFE1CFA4
:10072000D9FFE2CFDAFF94E9089E04E700AE02D0D9
:10073000006C088E80EB0CF00B6A0A6A096A860E60
:100740000D6E0E6AA4EF03F00C500B100A10091086
:1007500055E00EBE4DD00CBE0CD00D500E1048E032
:10076000D89009360A360B360C360D06D8A00E0680
:10077000F2D70E5031E10D282FE009AE11D07F0ED7
:10078000091402E10AA00CD00A2AE86A0B220C2202
:1007900007E3D8800C320B320A320D2A0D281CE0F8
:1007A0000D5026E08AEB00F08BEB01F00C34026E6A
:1007B0000D30036E0232039E08BE038EE552E5CF74
:1007C000DAFFE7CFD9FF4EE912007F0E036EFF0E6E
:1007D000026E016E006EF2D77F0E08BEFF0E036E32
:1007E00002D07F0E036E800E026E016A006AE6D7A9
:1007F00008AE04D0800E036E026AF7D7036A026A5D
:10080000F4D745E8D9CFE6FFDACFE6FFE1CFD9FF4D
:10081000E2CFDAFF8BE9086A52EC04F008B615EF74
:1008200004F008AA0AD008BC03D07F0E006E1BD0CB
:10083000800E006E18D0006A16D008B8FCD7870E5C
:100840000360F1D77E0E0364F6D7860E035C04E0E6
:10085000D8900232032AF9D708AC03D0026C02AE5A
:10086000EAD782EB00F0E552E5CFDAFFE7CFD9FF18
:1008700048E912000636073602E30884087E06E1DE
:100880000880076A066A056A046A1200072803E0FE
:10089000D88006321200D890063202E10882120097
:1008A000088612000236033602E3088C087E06E151
:1008B0000888036A026A016A006A1200032803E0DA
:1008C000D88002321200D8900232EAE1088A12007F
:1008D00045E8D9CFE6FFDACFE6FFE1CFD9FFE2CF97
:1008E000DAFF8FE90C6A1200F3DF0C8001D0F0DF31
:1008F000E86A03AE85EF04F0006C011E021E031EC1
:100900000122022203220CB00C7E07AE90EF04F00D
:10091000046C051E061E071E0522062207220C7EF9
:100920009FEC05F007BEC1EF04F00CAE0FD0046CD5
:10093000051E061E071EE86A052206220722086C0D
:10094000091E0A1E0B1E09220A220B220CB00AD015
:1009500088EB00F089EB01F08AEB02F08BEB03F0FF
:100960000CA008D084EB00F085EB01F086EB02F0E0
:1009700087EB03F0E552E5CFDAFFE7CFD9FF49E98E
:10098000000C0CBE97EF04F0E1DFFF0C44E8D9CF78
:10099000E6FFDACFE6FFE1CFD9FFE2CFDAFF8EE95B
:1009A00080EB08F081EB09F082EB0AF083EB0BF0AF
:1009B00004500802F350006EF450016E0450090216
:1009C000F3500126000EF420026E04500A02F35088
:1009D0000226000EF420036E04500B02F35003268F
:1009E00005500802F3500126F4500222000E0322A3
:1009F00005500902F3500226F450032205500A0262
:100A0000F350032606500802F3500226F450032246
:100A100006500902F350032607500802F35003263C
:100A2000E552E5CFDAFFE7CFD9FF48E9000C4AE805
:100A3000D9CFE6FFDACFE6FFE1CFD9FFE2CFDAFF89
:100A400094E9086A3AEC04F052EC04F008B6E5EFD9
:100A500003F008A205D008B8E5EF03F0ECEF03F0CF
:100A600008AA05D008B0E5EF03F0ECEF03F008B0FA
:100A700002D008A802D0F8EF03F00E6A0350072452
:100A80000D6EE86A0E227E0E0D5EE86A0E5A096A45
:100A90000A6A0B6A0C6A02500602F4500C6EF3509C
:100AA0000B6E01500602F3500A26F4500B22000E82
:100AB0000C2202500502F3500A26F4500B22000EBD
:100AC0000C2200500602F3500926F4500A22000EB0
:100AD0000B220C2201500502F3500926F4500A2281
:100AE000000E0B220C2202500402F3500926F4508F
:100AF0000A22000E0B220C2200500502F450092697
:100B0000000E0A220B220C2201500402F450092686
:100B1000000E0A220B220C22A4EF03F045E8D9CFE5
:100B2000E6FFDACFE6FFE1CFD9FFE2CFDAFF8FE9C8
:100B30000C6A1200F3DF0C8003D0F0DF01D00C82CE
:100B40000B6A0A6A096A086A200EE76ED8900436B2
:100B5000053606360736083609360A360B36005093
:100B6000085C0150095802500A5803500B5809E319
:100B70000050085E0150095A02500A5A03500B5A9D
:100B8000042AE72EE4D70CB212000CB00AD088EB8E
:100B900000F089EB01F08AEB02F08BEB03F00CA084
:100BA00008D084EB00F085EB01F086EB02F087EBD8
:100BB00003F0E552E5CFDAFFE7CFD9FF49E91200AC
:100BC00056455253494F4E20322E3030000D0D0DF8
:100BD0000D0D3C2B442529443D2A37554D008508F1
:100BE0003030303030555378F6FF0401FF0F305568
:100BF0005379F6FFC300FF0F3055537A01000E0002
:100C0000FF003055453136303030303030554E31C0
:100C1000373030303030300000000000000000007D
:100C200000000000000000000000000000000000C4
:100C30000000000000000000000000000000002094
:100C400056322E3030203837323220566172696188
:100C50006E20746F7563682D73637265656E2063B3
:100C60006F6E7665727465722E20467265642042DE
:100C7000726F6F6B732C204D6963726F636869705C
:060C800020496E632E0006
:0A0C86000E0EF66E000EF76E000E63
:100C9000F86E00010900F5504B6F0900F5504C6FDC
:100CA00003E14B6701D03DD00900F550466F0900C4
:100CB000F550476F0900F550486F09000900F550DD
:100CC000E96E0900F550EA6E090009000900F550C7
:100CD000496F0900F5504A6F09000900F6CF4DF041
:100CE000F7CF4EF0F8CF4FF046C0F6FF47C0F7FF02
:100CF00048C0F8FF0001495302E14A5307E00900E8
:100D0000F550EE6E4907F8E24A07F9D74DC0F6FFF5
:100D10004EC0F7FF4FC0F8FF00014B07000E4C5BC1
:040D2000BFD7120027
:0C0D2400D9CFE6FFDACFE6FFE1CFD9FF20
:100D3000E2CFDAFF85E96C6A6B6A02B06C8802A2C6
:100D400002D06C8C6B8C02B46C8E02A602D06B88C5
:100D500001D06B8A02A802D06C8401D06C9402BAD4
:100D60006B8602AC02D0A38A01D0A39A02AE02D055
:100D7000A38801D0A39800EB6FFF000101EB54F0B2
:100D8000556B54C07DFF6C8A6B8E989298846C5022
:100D9000100B04E06C50800B01E1988241E9E5CF33
:080DA000DAFFE7CFD9FF1200D2
:080DA800D9CFE6FFDACFE6FF28
:100DB000E1CFD9FFE2CFDAFF85E9AC6AAB6A02B0D6
:100DC000AC8802A202D0AC8CAB8C02B4AC8E02A672
:100DD00002D0AB8801D0AB8A02B8AC8402BAAB8631
:100DE00002AC02D09D8A01D09D9A02AE02D09D88AD
:100DF00001D09D9800EBAFFF01EB54F054C07FFF92
:100E0000AC8AAB8E949C948EAC50100B04E0AC502A
:100E1000800B01E1948C41E9E5CFDAFFE7CFD9FF00
:020E20001200BE
:0E0E2200D9CFE6FFDACFE6FFE1CFD9FFE2CF6E
:100E3000DAFF85E9ACA2FED700EBF6FF01EBF7FF86
:100E400002EBF8FF0800F5CFE6FFF2EC07F041E90E
:100E5000D9CFE9FFDACFEAFFEFCFF6FFEE2AEFCFE7
:100E6000F7FF000EEE22EFCFF8FFEE220800F5505C
:0E0E7000E1E141E9E5CFDAFFE7CFD9FF12005B
:020E7E000A0D5B
:100E800056617269616E20746F7563682D73637249
:100E900065656E20636F6E7665727465722E20468E
:100EA0007265642042726F6F6B732C204D696372A0
:100EB0006F6368697020496E632E200A0D00313718
:100EC0003A34353A3237004A616E203236203230B9
:030ED000313500B9
:0C0ED400D9CFE6FFDACFE6FFE1CFD9FF6F
:100EE000E2CFDAFF82E941E8F20E000159176BAC5C
:100EF00003D059916BB059816BB459856BB2598746
:100F00006E50026E025042E9E5CFDAFFE7CFD9FF1B
:020F10001200CD
:0E0F1200D9CFE6FFDACFE6FFE1CFD9FFE2CF7D
:100F2000DAFF82E941E8F20E00015A17ABAC03D0B8
:100F30005A91ABB05A81ABB45A85ABB25A87AE5016
:100F4000026E025042E9E5CFDAFFE7CFD9FF120087
:100F5000D9CFE6FFDACFE6FFE1CFD9FFE2CFDAFF64
:100F600083E97F0E0014D56ED76AD66AF29400AE7C
:100F700002D0F28A01D0F29AD58E41E9E5CFDAFFAC
:060F8000E7CFD9FF1200CB
:0A0F8600D9CFE6FFDACFE6FFE1CF96
:100F9000D9FFE2CFDAFF84E942E880EB04F081EB8D
:100FA00005F005EBD7FF04EBD6FF43E9E5CFDAFF09
:060FB000E7CFD9FF12009B
:0A0FB600D9CFE6FFDACFE6FFE1CF66
:100FC000D9FFE2CFDAFF83E96CAC04D06C9000016A
:100FD00059B36C8000EB6DFF41E9E5CFDAFFE7CF55
:040FE000D9FF120023
:0C0FE400D9CFE6FFDACFE6FFE1CFD9FF5E
:100FF000E2CFDAFF83E9ACAC04D0AC9000015AB385
:10100000AC8000EBADFF41E9E5CFDAFFE7CFD9FFD8
:021010001200CC
:0E101200600EF36E00EE00F00F0E01D812001B
:10102000EA6002D0EE6AFCD7F350E9601200EE6A83
:02103000FCD7EB
:0E1032001EEE00F02EEE00F0F86A43EC06F021
:0C10400003EC00F028EC02F0FBD71200DB
:04104C00775EC70EF6
:0410500000BE0E00D0
:0C1054000001000000000000000000008F
:10106000000000003333F33F0000E03F6A670000F8
:0210700000007E
:020000040030CA
:0100010006F8
:010002001EDF
:010003000FED
:01000400F308
:010005008377
:01000600C534
:01000800FFF8
:01000900C036
:01000A00FFF6
:01000B00E014
:01000C00FFF4
:01000D0040B2
:00000001FF
